{
  "_format": "hh-sol-artifact-1",
  "contractName": "DappVotes",
  "sourceName": "contracts/Lock.sol",
  "abi": [
    {
      "anonymous": false,
      "inputs": [
        {
          "indexed": true,
          "internalType": "address",
          "name": "voter",
          "type": "address"
        },
        {
          "indexed": false,
          "internalType": "uint256",
          "name": "timestamp",
          "type": "uint256"
        }
      ],
      "name": "Voted",
      "type": "event"
    },
    {
      "inputs": [
        {
          "internalType": "uint256",
          "name": "id",
          "type": "uint256"
        },
        {
          "internalType": "string",
          "name": "name",
          "type": "string"
        },
        {
          "internalType": "string",
          "name": "image",
          "type": "string"
        }
      ],
      "name": "contest",
      "outputs": [],
      "stateMutability": "nonpayable",
      "type": "function"
    },
    {
      "inputs": [
        {
          "internalType": "string",
          "name": "image",
          "type": "string"
        },
        {
          "internalType": "string",
          "name": "title",
          "type": "string"
        },
        {
          "internalType": "string",
          "name": "description",
          "type": "string"
        },
        {
          "internalType": "uint256",
          "name": "startsAt",
          "type": "uint256"
        },
        {
          "internalType": "uint256",
          "name": "endsAt",
          "type": "uint256"
        }
      ],
      "name": "createPoll",
      "outputs": [],
      "stateMutability": "nonpayable",
      "type": "function"
    },
    {
      "inputs": [
        {
          "internalType": "uint256",
          "name": "id",
          "type": "uint256"
        }
      ],
      "name": "deletePoll",
      "outputs": [],
      "stateMutability": "nonpayable",
      "type": "function"
    },
    {
      "inputs": [
        {
          "internalType": "uint256",
          "name": "id",
          "type": "uint256"
        },
        {
          "internalType": "uint256",
          "name": "cid",
          "type": "uint256"
        }
      ],
      "name": "getContestant",
      "outputs": [
        {
          "components": [
            {
              "internalType": "uint256",
              "name": "id",
              "type": "uint256"
            },
            {
              "internalType": "string",
              "name": "image",
              "type": "string"
            },
            {
              "internalType": "string",
              "name": "name",
              "type": "string"
            },
            {
              "internalType": "address",
              "name": "voter",
              "type": "address"
            },
            {
              "internalType": "uint256",
              "name": "votes",
              "type": "uint256"
            },
            {
              "internalType": "address[]",
              "name": "voters",
              "type": "address[]"
            }
          ],
          "internalType": "struct DappVotes.ContestantStruct",
          "name": "",
          "type": "tuple"
        }
      ],
      "stateMutability": "view",
      "type": "function"
    },
    {
      "inputs": [
        {
          "internalType": "uint256",
          "name": "id",
          "type": "uint256"
        }
      ],
      "name": "getContestants",
      "outputs": [
        {
          "components": [
            {
              "internalType": "uint256",
              "name": "id",
              "type": "uint256"
            },
            {
              "internalType": "string",
              "name": "image",
              "type": "string"
            },
            {
              "internalType": "string",
              "name": "name",
              "type": "string"
            },
            {
              "internalType": "address",
              "name": "voter",
              "type": "address"
            },
            {
              "internalType": "uint256",
              "name": "votes",
              "type": "uint256"
            },
            {
              "internalType": "address[]",
              "name": "voters",
              "type": "address[]"
            }
          ],
          "internalType": "struct DappVotes.ContestantStruct[]",
          "name": "Contestants",
          "type": "tuple[]"
        }
      ],
      "stateMutability": "view",
      "type": "function"
    },
    {
      "inputs": [
        {
          "internalType": "uint256",
          "name": "id",
          "type": "uint256"
        }
      ],
      "name": "getPoll",
      "outputs": [
        {
          "components": [
            {
              "internalType": "uint256",
              "name": "id",
              "type": "uint256"
            },
            {
              "internalType": "string",
              "name": "image",
              "type": "string"
            },
            {
              "internalType": "string",
              "name": "title",
              "type": "string"
            },
            {
              "internalType": "string",
              "name": "description",
              "type": "string"
            },
            {
              "internalType": "uint256",
              "name": "votes",
              "type": "uint256"
            },
            {
              "internalType": "uint256",
              "name": "contestants",
              "type": "uint256"
            },
            {
              "internalType": "bool",
              "name": "deleted",
              "type": "bool"
            },
            {
              "internalType": "address",
              "name": "director",
              "type": "address"
            },
            {
              "internalType": "uint256",
              "name": "startsAt",
              "type": "uint256"
            },
            {
              "internalType": "uint256",
              "name": "endsAt",
              "type": "uint256"
            },
            {
              "internalType": "uint256",
              "name": "timestamp",
              "type": "uint256"
            },
            {
              "internalType": "address[]",
              "name": "voters",
              "type": "address[]"
            },
            {
              "internalType": "string[]",
              "name": "avatars",
              "type": "string[]"
            }
          ],
          "internalType": "struct DappVotes.PollStruct",
          "name": "",
          "type": "tuple"
        }
      ],
      "stateMutability": "view",
      "type": "function"
    },
    {
      "inputs": [],
      "name": "getPolls",
      "outputs": [
        {
          "components": [
            {
              "internalType": "uint256",
              "name": "id",
              "type": "uint256"
            },
            {
              "internalType": "string",
              "name": "image",
              "type": "string"
            },
            {
              "internalType": "string",
              "name": "title",
              "type": "string"
            },
            {
              "internalType": "string",
              "name": "description",
              "type": "string"
            },
            {
              "internalType": "uint256",
              "name": "votes",
              "type": "uint256"
            },
            {
              "internalType": "uint256",
              "name": "contestants",
              "type": "uint256"
            },
            {
              "internalType": "bool",
              "name": "deleted",
              "type": "bool"
            },
            {
              "internalType": "address",
              "name": "director",
              "type": "address"
            },
            {
              "internalType": "uint256",
              "name": "startsAt",
              "type": "uint256"
            },
            {
              "internalType": "uint256",
              "name": "endsAt",
              "type": "uint256"
            },
            {
              "internalType": "uint256",
              "name": "timestamp",
              "type": "uint256"
            },
            {
              "internalType": "address[]",
              "name": "voters",
              "type": "address[]"
            },
            {
              "internalType": "string[]",
              "name": "avatars",
              "type": "string[]"
            }
          ],
          "internalType": "struct DappVotes.PollStruct[]",
          "name": "Polls",
          "type": "tuple[]"
        }
      ],
      "stateMutability": "view",
      "type": "function"
    },
    {
      "inputs": [
        {
          "internalType": "uint256",
          "name": "id",
          "type": "uint256"
        },
        {
          "internalType": "string",
          "name": "image",
          "type": "string"
        },
        {
          "internalType": "string",
          "name": "title",
          "type": "string"
        },
        {
          "internalType": "string",
          "name": "description",
          "type": "string"
        },
        {
          "internalType": "uint256",
          "name": "startsAt",
          "type": "uint256"
        },
        {
          "internalType": "uint256",
          "name": "endsAt",
          "type": "uint256"
        }
      ],
      "name": "updatePoll",
      "outputs": [],
      "stateMutability": "nonpayable",
      "type": "function"
    },
    {
      "inputs": [
        {
          "internalType": "uint256",
          "name": "id",
          "type": "uint256"
        },
        {
          "internalType": "uint256",
          "name": "cid",
          "type": "uint256"
        }
      ],
      "name": "vote",
      "outputs": [],
      "stateMutability": "nonpayable",
      "type": "function"
    }
  ],
  "bytecode": "0x608060405234801561001057600080fd5b50613be6806100206000396000f3fe608060405234801561001057600080fd5b50600436106100935760003560e01c806366dd51dc1161006657806366dd51dc1461011e578063b384abef1461013a578063cee9dc4514610156578063d343641114610186578063f0d0bc45146101b657610093565b8063029433f014610098578063120fe89b146100b45780631a8cbcaa146100d25780631f35b51d14610102575b600080fd5b6100b260048036038101906100ad91906125c8565b6101d2565b005b6100bc61054b565b6040516100c99190612afb565b60405180910390f35b6100ec60048036038101906100e79190612b1d565b610a73565b6040516100f99190612c7f565b60405180910390f35b61011c60048036038101906101179190612b1d565b610e6b565b005b61013860048036038101906101339190612ca1565b610ffa565b005b610154600480360381019061014f9190612d2c565b6113fc565b005b610170600480360381019061016b9190612b1d565b611869565b60405161017d9190612ec5565b60405180910390f35b6101a0600480360381019061019b9190612d2c565b611c01565b6040516101ad9190612f7e565b60405180910390f35b6101d060048036038101906101cb9190612fa0565b611e5c565b005b6002600087815260200190815260200160002060009054906101000a900460ff16610232576040517f08c379a0000000000000000000000000000000000000000000000000000000008152600401610229906130cc565b60405180910390fd5b3373ffffffffffffffffffffffffffffffffffffffff166003600088815260200190815260200160002060060160019054906101000a900473ffffffffffffffffffffffffffffffffffffffff1673ffffffffffffffffffffffffffffffffffffffff16146102d6576040517f08c379a00000000000000000000000000000000000000000000000000000000081526004016102cd90613138565b60405180910390fd5b600084511161031a576040517f08c379a0000000000000000000000000000000000000000000000000000000008152600401610311906131a4565b60405180910390fd5b600083511161035e576040517f08c379a000000000000000000000000000000000000000000000000000000000815260040161035590613210565b60405180910390fd5b60008551116103a2576040517f08c379a00000000000000000000000000000000000000000000000000000000081526004016103999061327c565b60405180910390fd5b6003600087815260200190815260200160002060060160009054906101000a900460ff1615610406576040517f08c379a00000000000000000000000000000000000000000000000000000000081526004016103fd906132e8565b60405180910390fd5b600160036000888152602001908152602001600020600401541061045f576040517f08c379a000000000000000000000000000000000000000000000000000000000815260040161045690613354565b60405180910390fd5b8181116104a1576040517f08c379a0000000000000000000000000000000000000000000000000000000008152600401610498906133e6565b60405180910390fd5b836003600088815260200190815260200160002060020190816104c49190613612565b50826003600088815260200190815260200160002060030190816104e89190613612565b50816003600088815260200190815260200160002060070181905550806003600088815260200190815260200160002060080181905550846003600088815260200190815260200160002060010190816105429190613612565b50505050505050565b6060600080600190505b61055f60006121c4565b81116105af576003600082815260200190815260200160002060060160009054906101000a900460ff1661059c57818061059890613713565b9250505b80806105a790613713565b915050610555565b508067ffffffffffffffff8111156105ca576105c961249d565b5b60405190808252806020026020018201604052801561060357816020015b6105f0612208565b8152602001906001900390816105e85790505b509150600080600190505b61061860006121c4565b8111610a6d576003600082815260200190815260200160002060060160009054906101000a900460ff16610a5a5760036000828152602001908152602001600020604051806101a00160405290816000820154815260200160018201805461067f90613435565b80601f01602080910402602001604051908101604052809291908181526020018280546106ab90613435565b80156106f85780601f106106cd576101008083540402835291602001916106f8565b820191906000526020600020905b8154815290600101906020018083116106db57829003601f168201915b5050505050815260200160028201805461071190613435565b80601f016020809104026020016040519081016040528092919081815260200182805461073d90613435565b801561078a5780601f1061075f5761010080835404028352916020019161078a565b820191906000526020600020905b81548152906001019060200180831161076d57829003601f168201915b505050505081526020016003820180546107a390613435565b80601f01602080910402602001604051908101604052809291908181526020018280546107cf90613435565b801561081c5780601f106107f15761010080835404028352916020019161081c565b820191906000526020600020905b8154815290600101906020018083116107ff57829003601f168201915b5050505050815260200160048201548152602001600582015481526020016006820160009054906101000a900460ff161515151581526020016006820160019054906101000a900473ffffffffffffffffffffffffffffffffffffffff1673ffffffffffffffffffffffffffffffffffffffff1673ffffffffffffffffffffffffffffffffffffffff168152602001600782015481526020016008820154815260200160098201548152602001600a820180548060200260200160405190810160405280929190818152602001828054801561094d57602002820191906000526020600020905b8160009054906101000a900473ffffffffffffffffffffffffffffffffffffffff1673ffffffffffffffffffffffffffffffffffffffff1681526020019060010190808311610903575b50505050508152602001600b8201805480602002602001604051908101604052809291908181526020016000905b82821015610a2757838290600052602060002001805461099a90613435565b80601f01602080910402602001604051908101604052809291908181526020018280546109c690613435565b8015610a135780601f106109e857610100808354040283529160200191610a13565b820191906000526020600020905b8154815290600101906020018083116109f657829003601f168201915b50505050508152602001906001019061097b565b5050505081525050848380610a3b90613713565b945081518110610a4e57610a4d61375b565b5b60200260200101819052505b8080610a6590613713565b91505061060e565b50505090565b610a7b612208565b60036000838152602001908152602001600020604051806101a001604052908160008201548152602001600182018054610ab490613435565b80601f0160208091040260200160405190810160405280929190818152602001828054610ae090613435565b8015610b2d5780601f10610b0257610100808354040283529160200191610b2d565b820191906000526020600020905b815481529060010190602001808311610b1057829003601f168201915b50505050508152602001600282018054610b4690613435565b80601f0160208091040260200160405190810160405280929190818152602001828054610b7290613435565b8015610bbf5780601f10610b9457610100808354040283529160200191610bbf565b820191906000526020600020905b815481529060010190602001808311610ba257829003601f168201915b50505050508152602001600382018054610bd890613435565b80601f0160208091040260200160405190810160405280929190818152602001828054610c0490613435565b8015610c515780601f10610c2657610100808354040283529160200191610c51565b820191906000526020600020905b815481529060010190602001808311610c3457829003601f168201915b5050505050815260200160048201548152602001600582015481526020016006820160009054906101000a900460ff161515151581526020016006820160019054906101000a900473ffffffffffffffffffffffffffffffffffffffff1673ffffffffffffffffffffffffffffffffffffffff1673ffffffffffffffffffffffffffffffffffffffff168152602001600782015481526020016008820154815260200160098201548152602001600a8201805480602002602001604051908101604052809291908181526020018280548015610d8257602002820191906000526020600020905b8160009054906101000a900473ffffffffffffffffffffffffffffffffffffffff1673ffffffffffffffffffffffffffffffffffffffff1681526020019060010190808311610d38575b50505050508152602001600b8201805480602002602001604051908101604052809291908181526020016000905b82821015610e5c578382906000526020600020018054610dcf90613435565b80601f0160208091040260200160405190810160405280929190818152602001828054610dfb90613435565b8015610e485780601f10610e1d57610100808354040283529160200191610e48565b820191906000526020600020905b815481529060010190602001808311610e2b57829003601f168201915b505050505081526020019060010190610db0565b50505050815250509050919050565b6002600082815260200190815260200160002060009054906101000a900460ff16610ecb576040517f08c379a0000000000000000000000000000000000000000000000000000000008152600401610ec2906130cc565b60405180910390fd5b3373ffffffffffffffffffffffffffffffffffffffff166003600083815260200190815260200160002060060160019054906101000a900473ffffffffffffffffffffffffffffffffffffffff1673ffffffffffffffffffffffffffffffffffffffff1614610f6f576040517f08c379a0000000000000000000000000000000000000000000000000000000008152600401610f6690613138565b60405180910390fd5b6001600360008381526020019081526020016000206004015410610fc8576040517f08c379a0000000000000000000000000000000000000000000000000000000008152600401610fbf90613354565b60405180910390fd5b60016003600083815260200190815260200160002060060160006101000a81548160ff02191690831515021790555050565b6002600084815260200190815260200160002060009054906101000a900460ff1661105a576040517f08c379a0000000000000000000000000000000000000000000000000000000008152600401611051906130cc565b60405180910390fd5b600082511161109e576040517f08c379a0000000000000000000000000000000000000000000000000000000008152600401611095906137d6565b60405180910390fd5b60008151116110e2576040517f08c379a00000000000000000000000000000000000000000000000000000000081526004016110d990613842565b60405180910390fd5b600160036000858152602001908152602001600020600401541061113b576040517f08c379a000000000000000000000000000000000000000000000000000000000815260040161113290613354565b60405180910390fd5b6005600084815260200190815260200160002060003373ffffffffffffffffffffffffffffffffffffffff1673ffffffffffffffffffffffffffffffffffffffff16815260200190815260200160002060009054906101000a900460ff16156111d9576040517f08c379a00000000000000000000000000000000000000000000000000000000081526004016111d0906138ae565b60405180910390fd5b6111e360016121d2565b6111eb612288565b82816040018190525081816020018190525033816060019073ffffffffffffffffffffffffffffffffffffffff16908173ffffffffffffffffffffffffffffffffffffffff168152505061123f60016121c4565b81600001818152505080600660008681526020019081526020016000206000836000015181526020019081526020016000206000820151816000015560208201518160010190816112909190613612565b5060408201518160020190816112a69190613612565b5060608201518160030160006101000a81548173ffffffffffffffffffffffffffffffffffffffff021916908373ffffffffffffffffffffffffffffffffffffffff1602179055506080820151816004015560a08201518160050190805190602001906113149291906122d4565b5090505060016005600086815260200190815260200160002060003373ffffffffffffffffffffffffffffffffffffffff1673ffffffffffffffffffffffffffffffffffffffff16815260200190815260200160002060006101000a81548160ff02191690831515021790555060036000858152602001908152602001600020600b01829080600181540180825580915050600190039060005260206000200160009091909190915090816113c99190613612565b506003600085815260200190815260200160002060050160008154809291906113f190613713565b919050555050505050565b6002600083815260200190815260200160002060009054906101000a900460ff1661145c576040517f08c379a0000000000000000000000000000000000000000000000000000000008152600401611453906130cc565b60405180910390fd5b6004600083815260200190815260200160002060003373ffffffffffffffffffffffffffffffffffffffff1673ffffffffffffffffffffffffffffffffffffffff16815260200190815260200160002060009054906101000a900460ff16156114fa576040517f08c379a00000000000000000000000000000000000000000000000000000000081526004016114f19061391a565b60405180910390fd5b6003600083815260200190815260200160002060060160009054906101000a900460ff161561155e576040517f08c379a000000000000000000000000000000000000000000000000000000000815260040161155590613986565b60405180910390fd5b60016003600084815260200190815260200160002060050154116115b7576040517f08c379a00000000000000000000000000000000000000000000000000000000081526004016115ae906139f2565b60405180910390fd5b60036000838152602001908152602001600020600701546115d66121e8565b10158015611600575060036000838152602001908152602001600020600801546115fe6121e8565b105b61163f576040517f08c379a000000000000000000000000000000000000000000000000000000000815260040161163690613a5e565b60405180910390fd5b60036000838152602001908152602001600020600401600081548092919061166690613713565b919050555060036000838152602001908152602001600020600a01339080600181540180825580915050600190039060005260206000200160009091909190916101000a81548173ffffffffffffffffffffffffffffffffffffffff021916908373ffffffffffffffffffffffffffffffffffffffff160217905550600660008381526020019081526020016000206000828152602001908152602001600020600401600081548092919061171a90613713565b9190505550600660008381526020019081526020016000206000828152602001908152602001600020600501339080600181540180825580915050600190039060005260206000200160009091909190916101000a81548173ffffffffffffffffffffffffffffffffffffffff021916908373ffffffffffffffffffffffffffffffffffffffff16021790555060016004600084815260200190815260200160002060003373ffffffffffffffffffffffffffffffffffffffff1673ffffffffffffffffffffffffffffffffffffffff16815260200190815260200160002060006101000a81548160ff0219169083151502179055503373ffffffffffffffffffffffffffffffffffffffff167f4d99b957a2bc29a30ebd96a7be8e68fe50a3c701db28a91436490b7d53870ca46118506121e8565b60405161185d9190613a8d565b60405180910390a25050565b6060600080600190505b61187d60016121c4565b81116118d3578060066000868152602001908152602001600020600083815260200190815260200160002060000154036118c05781806118bc90613713565b9250505b80806118cb90613713565b915050611873565b508067ffffffffffffffff8111156118ee576118ed61249d565b5b60405190808252806020026020018201604052801561192757816020015b611914612288565b81526020019060019003908161190c5790505b509150600080600190505b61193c60016121c4565b8111611bf957806006600087815260200190815260200160002060008381526020019081526020016000206000015403611be6576006600086815260200190815260200160002060008281526020019081526020016000206040518060c0016040529081600082015481526020016001820180546119b990613435565b80601f01602080910402602001604051908101604052809291908181526020018280546119e590613435565b8015611a325780601f10611a0757610100808354040283529160200191611a32565b820191906000526020600020905b815481529060010190602001808311611a1557829003601f168201915b50505050508152602001600282018054611a4b90613435565b80601f0160208091040260200160405190810160405280929190818152602001828054611a7790613435565b8015611ac45780601f10611a9957610100808354040283529160200191611ac4565b820191906000526020600020905b815481529060010190602001808311611aa757829003601f168201915b505050505081526020016003820160009054906101000a900473ffffffffffffffffffffffffffffffffffffffff1673ffffffffffffffffffffffffffffffffffffffff1673ffffffffffffffffffffffffffffffffffffffff1681526020016004820154815260200160058201805480602002602001604051908101604052809291908181526020018280548015611bb257602002820191906000526020600020905b8160009054906101000a900473ffffffffffffffffffffffffffffffffffffffff1673ffffffffffffffffffffffffffffffffffffffff1681526020019060010190808311611b68575b505050505081525050848380611bc790613713565b945081518110611bda57611bd961375b565b5b60200260200101819052505b8080611bf190613713565b915050611932565b505050919050565b611c09612288565b6006600084815260200190815260200160002060008381526020019081526020016000206040518060c001604052908160008201548152602001600182018054611c5290613435565b80601f0160208091040260200160405190810160405280929190818152602001828054611c7e90613435565b8015611ccb5780601f10611ca057610100808354040283529160200191611ccb565b820191906000526020600020905b815481529060010190602001808311611cae57829003601f168201915b50505050508152602001600282018054611ce490613435565b80601f0160208091040260200160405190810160405280929190818152602001828054611d1090613435565b8015611d5d5780601f10611d3257610100808354040283529160200191611d5d565b820191906000526020600020905b815481529060010190602001808311611d4057829003601f168201915b505050505081526020016003820160009054906101000a900473ffffffffffffffffffffffffffffffffffffffff1673ffffffffffffffffffffffffffffffffffffffff1673ffffffffffffffffffffffffffffffffffffffff1681526020016004820154815260200160058201805480602002602001604051908101604052809291908181526020018280548015611e4b57602002820191906000526020600020905b8160009054906101000a900473ffffffffffffffffffffffffffffffffffffffff1673ffffffffffffffffffffffffffffffffffffffff1681526020019060010190808311611e01575b505050505081525050905092915050565b6000845111611ea0576040517f08c379a0000000000000000000000000000000000000000000000000000000008152600401611e97906131a4565b60405180910390fd5b6000835111611ee4576040517f08c379a0000000000000000000000000000000000000000000000000000000008152600401611edb90613210565b60405180910390fd5b6000855111611f28576040517f08c379a0000000000000000000000000000000000000000000000000000000008152600401611f1f9061327c565b60405180910390fd5b60008211611f6b576040517f08c379a0000000000000000000000000000000000000000000000000000000008152600401611f6290613b1a565b60405180910390fd5b818111611fad576040517f08c379a0000000000000000000000000000000000000000000000000000000008152600401611fa4906133e6565b60405180910390fd5b611fb760006121d2565b611fbf612208565b611fc960006121c4565b81600001818152505084816040018190525083816060018190525085816020018190525082816101000181815250508181610120018181525050338160e0019073ffffffffffffffffffffffffffffffffffffffff16908173ffffffffffffffffffffffffffffffffffffffff16815250506120436121e8565b816101400181815250508060036000836000015181526020019081526020016000206000820151816000015560208201518160010190816120849190613612565b50604082015181600201908161209a9190613612565b5060608201518160030190816120b09190613612565b506080820151816004015560a0820151816005015560c08201518160060160006101000a81548160ff02191690831515021790555060e08201518160060160016101000a81548173ffffffffffffffffffffffffffffffffffffffff021916908373ffffffffffffffffffffffffffffffffffffffff16021790555061010082015181600701556101208201518160080155610140820151816009015561016082015181600a01908051906020019061216a9291906122d4565b5061018082015181600b01908051906020019061218892919061235e565b509050506001600260008360000151815260200190815260200160002060006101000a81548160ff021916908315150217905550505050505050565b600081600001549050919050565b6001816000016000828254019250508190555050565b60006103e880426121f99190613b3a565b6122039190613b7c565b905090565b604051806101a00160405280600081526020016060815260200160608152602001606081526020016000815260200160008152602001600015158152602001600073ffffffffffffffffffffffffffffffffffffffff16815260200160008152602001600081526020016000815260200160608152602001606081525090565b6040518060c00160405280600081526020016060815260200160608152602001600073ffffffffffffffffffffffffffffffffffffffff16815260200160008152602001606081525090565b82805482825590600052602060002090810192821561234d579160200282015b8281111561234c5782518260006101000a81548173ffffffffffffffffffffffffffffffffffffffff021916908373ffffffffffffffffffffffffffffffffffffffff160217905550916020019190600101906122f4565b5b50905061235a91906123b7565b5090565b8280548282559060005260206000209081019282156123a6579160200282015b828111156123a55782518290816123959190613612565b509160200191906001019061237e565b5b5090506123b391906123d4565b5090565b5b808211156123d05760008160009055506001016123b8565b5090565b5b808211156123f457600081816123eb91906123f8565b506001016123d5565b5090565b50805461240490613435565b6000825580601f106124165750612435565b601f01602090049060005260206000209081019061243491906123b7565b5b50565b6000604051905090565b600080fd5b600080fd5b6000819050919050565b61245f8161244c565b811461246a57600080fd5b50565b60008135905061247c81612456565b92915050565b600080fd5b600080fd5b6000601f19601f8301169050919050565b7f4e487b7100000000000000000000000000000000000000000000000000000000600052604160045260246000fd5b6124d58261248c565b810181811067ffffffffffffffff821117156124f4576124f361249d565b5b80604052505050565b6000612507612438565b905061251382826124cc565b919050565b600067ffffffffffffffff8211156125335761253261249d565b5b61253c8261248c565b9050602081019050919050565b82818337600083830152505050565b600061256b61256684612518565b6124fd565b90508281526020810184848401111561258757612586612487565b5b612592848285612549565b509392505050565b600082601f8301126125af576125ae612482565b5b81356125bf848260208601612558565b91505092915050565b60008060008060008060c087890312156125e5576125e4612442565b5b60006125f389828a0161246d565b965050602087013567ffffffffffffffff81111561261457612613612447565b5b61262089828a0161259a565b955050604087013567ffffffffffffffff81111561264157612640612447565b5b61264d89828a0161259a565b945050606087013567ffffffffffffffff81111561266e5761266d612447565b5b61267a89828a0161259a565b935050608061268b89828a0161246d565b92505060a061269c89828a0161246d565b9150509295509295509295565b600081519050919050565b600082825260208201905092915050565b6000819050602082019050919050565b6126de8161244c565b82525050565b600081519050919050565b600082825260208201905092915050565b60005b8381101561271e578082015181840152602081019050612703565b60008484015250505050565b6000612735826126e4565b61273f81856126ef565b935061274f818560208601612700565b6127588161248c565b840191505092915050565b60008115159050919050565b61277881612763565b82525050565b600073ffffffffffffffffffffffffffffffffffffffff82169050919050565b60006127a98261277e565b9050919050565b6127b98161279e565b82525050565b600081519050919050565b600082825260208201905092915050565b6000819050602082019050919050565b60006127f783836127b0565b60208301905092915050565b6000602082019050919050565b600061281b826127bf565b61282581856127ca565b9350612830836127db565b8060005b8381101561286157815161284888826127eb565b975061285383612803565b925050600181019050612834565b5085935050505092915050565b600081519050919050565b600082825260208201905092915050565b6000819050602082019050919050565b60006128a6838361272a565b905092915050565b6000602082019050919050565b60006128c68261286e565b6128d08185612879565b9350836020820285016128e28561288a565b8060005b8581101561291e57848403895281516128ff858261289a565b945061290a836128ae565b925060208a019950506001810190506128e6565b50829750879550505050505092915050565b60006101a08301600083015161294960008601826126d5565b5060208301518482036020860152612961828261272a565b9150506040830151848203604086015261297b828261272a565b91505060608301518482036060860152612995828261272a565b91505060808301516129aa60808601826126d5565b5060a08301516129bd60a08601826126d5565b5060c08301516129d060c086018261276f565b5060e08301516129e360e08601826127b0565b506101008301516129f86101008601826126d5565b50610120830151612a0d6101208601826126d5565b50610140830151612a226101408601826126d5565b50610160830151848203610160860152612a3c8282612810565b915050610180830151848203610180860152612a5882826128bb565b9150508091505092915050565b6000612a718383612930565b905092915050565b6000602082019050919050565b6000612a91826126a9565b612a9b81856126b4565b935083602082028501612aad856126c5565b8060005b85811015612ae95784840389528151612aca8582612a65565b9450612ad583612a79565b925060208a01995050600181019050612ab1565b50829750879550505050505092915050565b60006020820190508181036000830152612b158184612a86565b905092915050565b600060208284031215612b3357612b32612442565b5b6000612b418482850161246d565b91505092915050565b60006101a083016000830151612b6360008601826126d5565b5060208301518482036020860152612b7b828261272a565b91505060408301518482036040860152612b95828261272a565b91505060608301518482036060860152612baf828261272a565b9150506080830151612bc460808601826126d5565b5060a0830151612bd760a08601826126d5565b5060c0830151612bea60c086018261276f565b5060e0830151612bfd60e08601826127b0565b50610100830151612c126101008601826126d5565b50610120830151612c276101208601826126d5565b50610140830151612c3c6101408601826126d5565b50610160830151848203610160860152612c568282612810565b915050610180830151848203610180860152612c7282826128bb565b9150508091505092915050565b60006020820190508181036000830152612c998184612b4a565b905092915050565b600080600060608486031215612cba57612cb9612442565b5b6000612cc88682870161246d565b935050602084013567ffffffffffffffff811115612ce957612ce8612447565b5b612cf58682870161259a565b925050604084013567ffffffffffffffff811115612d1657612d15612447565b5b612d228682870161259a565b9150509250925092565b60008060408385031215612d4357612d42612442565b5b6000612d518582860161246d565b9250506020612d628582860161246d565b9150509250929050565b600081519050919050565b600082825260208201905092915050565b6000819050602082019050919050565b600060c083016000830151612db060008601826126d5565b5060208301518482036020860152612dc8828261272a565b91505060408301518482036040860152612de2828261272a565b9150506060830151612df760608601826127b0565b506080830151612e0a60808601826126d5565b5060a083015184820360a0860152612e228282612810565b9150508091505092915050565b6000612e3b8383612d98565b905092915050565b6000602082019050919050565b6000612e5b82612d6c565b612e658185612d77565b935083602082028501612e7785612d88565b8060005b85811015612eb35784840389528151612e948582612e2f565b9450612e9f83612e43565b925060208a01995050600181019050612e7b565b50829750879550505050505092915050565b60006020820190508181036000830152612edf8184612e50565b905092915050565b600060c083016000830151612eff60008601826126d5565b5060208301518482036020860152612f17828261272a565b91505060408301518482036040860152612f31828261272a565b9150506060830151612f4660608601826127b0565b506080830151612f5960808601826126d5565b5060a083015184820360a0860152612f718282612810565b9150508091505092915050565b60006020820190508181036000830152612f988184612ee7565b905092915050565b600080600080600060a08688031215612fbc57612fbb612442565b5b600086013567ffffffffffffffff811115612fda57612fd9612447565b5b612fe68882890161259a565b955050602086013567ffffffffffffffff81111561300757613006612447565b5b6130138882890161259a565b945050604086013567ffffffffffffffff81111561303457613033612447565b5b6130408882890161259a565b93505060606130518882890161246d565b92505060806130628882890161246d565b9150509295509295909350565b600082825260208201905092915050565b7f506f6c6c206e6f7420666f756e64000000000000000000000000000000000000600082015250565b60006130b6600e8361306f565b91506130c182613080565b602082019050919050565b600060208201905081810360008301526130e5816130a9565b9050919050565b7f556e617574686f72697a656420656e7469747900000000000000000000000000600082015250565b600061312260138361306f565b915061312d826130ec565b602082019050919050565b6000602082019050818103600083015261315181613115565b9050919050565b7f5469746c652063616e6e6f7420626520656d7074790000000000000000000000600082015250565b600061318e60158361306f565b915061319982613158565b602082019050919050565b600060208201905081810360008301526131bd81613181565b9050919050565b7f4465736372697074696f6e2063616e6e6f7420626520656d7074790000000000600082015250565b60006131fa601b8361306f565b9150613205826131c4565b602082019050919050565b60006020820190508181036000830152613229816131ed565b9050919050565b7f496d6167652055524c2063616e6e6f7420626520656d70747900000000000000600082015250565b600061326660198361306f565b915061327182613230565b602082019050919050565b6000602082019050818103600083015261329581613259565b9050919050565b7f506f6c6c696e6720616c72656164792064656c65746564000000000000000000600082015250565b60006132d260178361306f565b91506132dd8261329c565b602082019050919050565b60006020820190508181036000830152613301816132c5565b9050919050565b7f506f6c6c2068617320766f74657320616c726561647900000000000000000000600082015250565b600061333e60168361306f565b915061334982613308565b602082019050919050565b6000602082019050818103600083015261336d81613331565b9050919050565b7f456e642064617465206d7573742062652067726561746572207468616e20737460008201527f6172742064617465000000000000000000000000000000000000000000000000602082015250565b60006133d060288361306f565b91506133db82613374565b604082019050919050565b600060208201905081810360008301526133ff816133c3565b9050919050565b7f4e487b7100000000000000000000000000000000000000000000000000000000600052602260045260246000fd5b6000600282049050600182168061344d57607f821691505b6020821081036134605761345f613406565b5b50919050565b60008190508160005260206000209050919050565b60006020601f8301049050919050565b600082821b905092915050565b6000600883026134c87fffffffffffffffffffffffffffffffffffffffffffffffffffffffffffffffff8261348b565b6134d2868361348b565b95508019841693508086168417925050509392505050565b6000819050919050565b600061350f61350a6135058461244c565b6134ea565b61244c565b9050919050565b6000819050919050565b613529836134f4565b61353d61353582613516565b848454613498565b825550505050565b600090565b613552613545565b61355d818484613520565b505050565b5b818110156135815761357660008261354a565b600181019050613563565b5050565b601f8211156135c65761359781613466565b6135a08461347b565b810160208510156135af578190505b6135c36135bb8561347b565b830182613562565b50505b505050565b600082821c905092915050565b60006135e9600019846008026135cb565b1980831691505092915050565b600061360283836135d8565b9150826002028217905092915050565b61361b826126e4565b67ffffffffffffffff8111156136345761363361249d565b5b61363e8254613435565b613649828285613585565b600060209050601f83116001811461367c576000841561366a578287015190505b61367485826135f6565b8655506136dc565b601f19841661368a86613466565b60005b828110156136b25784890151825560018201915060208501945060208101905061368d565b868310156136cf57848901516136cb601f8916826135d8565b8355505b6001600288020188555050505b505050505050565b7f4e487b7100000000000000000000000000000000000000000000000000000000600052601160045260246000fd5b600061371e8261244c565b91507fffffffffffffffffffffffffffffffffffffffffffffffffffffffffffffffff82036137505761374f6136e4565b5b600182019050919050565b7f4e487b7100000000000000000000000000000000000000000000000000000000600052603260045260246000fd5b7f6e616d652063616e6e6f7420626520656d707479000000000000000000000000600082015250565b60006137c060148361306f565b91506137cb8261378a565b602082019050919050565b600060208201905081810360008301526137ef816137b3565b9050919050565b7f696d6167652063616e6e6f7420626520656d7074790000000000000000000000600082015250565b600061382c60158361306f565b9150613837826137f6565b602082019050919050565b6000602082019050818103600083015261385b8161381f565b9050919050565b7f416c726561647920636f6e746573746564000000000000000000000000000000600082015250565b600061389860118361306f565b91506138a382613862565b602082019050919050565b600060208201905081810360008301526138c78161388b565b9050919050565b7f416c726561647920766f74656400000000000000000000000000000000000000600082015250565b6000613904600d8361306f565b915061390f826138ce565b602082019050919050565b60006020820190508181036000830152613933816138f7565b9050919050565b7f506f6c6c696e67206e6f7420617661696c61626c650000000000000000000000600082015250565b600061397060158361306f565b915061397b8261393a565b602082019050919050565b6000602082019050818103600083015261399f81613963565b9050919050565b7f4e6f7420656e6f75676820636f6e74657374616e747300000000000000000000600082015250565b60006139dc60168361306f565b91506139e7826139a6565b602082019050919050565b60006020820190508181036000830152613a0b816139cf565b9050919050565b7f566f74696e67206d75737420626520696e2073657373696f6e00000000000000600082015250565b6000613a4860198361306f565b9150613a5382613a12565b602082019050919050565b60006020820190508181036000830152613a7781613a3b565b9050919050565b613a878161244c565b82525050565b6000602082019050613aa26000830184613a7e565b92915050565b7f53746172742064617465206d7573742062652067726561746572207468616e2060008201527f3000000000000000000000000000000000000000000000000000000000000000602082015250565b6000613b0460218361306f565b9150613b0f82613aa8565b604082019050919050565b60006020820190508181036000830152613b3381613af7565b9050919050565b6000613b458261244c565b9150613b508361244c565b9250828202613b5e8161244c565b91508282048414831517613b7557613b746136e4565b5b5092915050565b6000613b878261244c565b9150613b928361244c565b9250828201905080821115613baa57613ba96136e4565b5b9291505056fea2646970667358221220bb9ba967fc5999d89823908fca95f4b954da1f1f0414426de3abab2d1d9698f964736f6c63430008130033",
  "linkReferences": {},
  "deployedLinkReferences": {}
}